:020000020000FC
:10000000A0E0B1E0CFEFD0E100E310E01ABB17BBF6
:1000100014BB1FEF11BB12B91093610022E02093B3
:1000200064002091630020FFFCCF39B366B393B323
:100030007091650082E0782B809365004DE054EE6E
:10004000341718F43FEF0C942800531708F43FEFCF
:1000500032BB4AE058EC641718F46FEF0C9433008D
:10006000561708F46FEF63B947E055EF941718F48B
:100070009FEF0C943E00591708F49FEF9093620095
:100080003D9306C06D9308C09D930AC00D930CC0AC
:10009000CA17DB0768F0F6CFCA17DB0748F0F4CFC2
:1000A000CA17DB0728F0F2CFCA17DB0708F004C035
:1000B000A0E0B1E00C944000E0916500ED7FE0939A
:0400C0006500AFCF59
:00000001FF
